:1000000068040020FD000000F9000000F900000075
:1000100000000000000000000000000000000000E0
:10002000000000000000000000000000F9000000D7
:100030000000000000000000F9000000F9000000CE
:10004000F9000000F9000000F9000000F9000000CC
:10005000F9000000F9000000F9000000F9000000BC
:10006000F9000000390A0000F9000000000000005B
:10007000F9000000F9000000F9000000F90000009C
:10008000F9000000F9000000F900000010B5064C6E
:100090002378002B07D1054B002B02D0044800E049
:1000A00000BF0123237010BD0000002000000000ED
:1000B000EC0F0000084B10B5002B03D0074908488F
:1000C00000E000BF07480368002B00D110BD064BBD
:1000D000002BFBD09847F9E7000000000400002047
:1000E000EC0F0000EC0F00000000000010B5014B09
:1000F000984710BD09030000FEE70000F8B52A4A42
:100100002A4B9A4211D01A00294B9A420DD2294A01
:1001100003339B1A9B0801339B000022234822498A
:100120008C58845004329A42FAD1234A234B9A4283
:100130000AD2D34321495B1803218B4304339B1814
:10014000002102C29342FCD11D4AFF211D4B8B436B
:100150009360FD3990235B001B4AD1501B4AD37832
:100160000325AB4302242343D370D3780C27BB432E
:1001700008263343D370164B987B302290432022BD
:1001800010439873997BB943314399739A7BAA437F
:1001900022439A730F4A536880210B4353600E4BDE
:1001A00098470E4B9847FEE7EC0F00000000002038
:1001B0000000002004000020000000206400002057
:1001C00000ED00E000000000007000410050004120
:1001D0000048004100400041E10E0000C50C000055
:1001E00010B51022C023DB055A600A490A4B8B6206
:1001F000C0231B068B624423CA5C01208243024356
:10020000D2B2CA5432228B5C0F24A3430343DBB225
:100210008B5410BD0044004110000040044A116A94
:1002200080235B000B431362024A034B5A807047E2
:100230000004004013400000000C004010B5054BC6
:100240009847054B9847002204490548054B9847B5
:1002500010BDC0461D020000E10100000020004268
:10026000200000202503000070B5124B4E20195CC1
:10027000042291431954195C0125A9430124214307
:10028000C9B219541738195C0F26B1430D3E3143DA
:1002900019544F215E5C96435E545A5CAA43224334
:1002A000D2B25A541A5C40390A4011310A431A54E6
:1002B00070BDC04600440041054A136A04210B4347
:1002C0001362044B044A5A80044A5A807047C0465D
:1002D00000040040000C00400E4000000D430000F0
:1002E00010B5044B984704490448054B9847054B03
:1002F000984710BDB9020000000800422400002009
:10030000DD0400006902000010B5034B9847034B61
:100310009847034B984710BDE10600003D020000DE
:10032000E102000070B504000D0000280CD00800A8
:10033000431E9841C0B239220449054B9847290011
:100340002000044B984770BD0020F4E7280F000000
:10035000490500005906000070B504000D00431E59
:100360009841C0B24E220449044B9847290020000E
:10037000034B9847002070BD280F0000490500007E
:1003800091060000F0B5DE4657464E464546E0B5BC
:1003900083B006000D009146019300281ED0002A6C
:1003A0001ED01800431E984167221F491F4FB847AF
:1003B000340030001E4B98470100804601981D4BC9
:1003C000984748424841C0B269221749B8470027B8
:1003D000194B9B46194E1A4B9A4608E00020E3E75A
:1003E0000020E1E74744BFB2019BBB4213D9200084
:1003F000D84729002000B0470028FAD02900200063
:10040000D0474B46D8554346012BEBD94B46DB1919
:10041000000A5870E6E7380003B03CBC90469946A5
:10042000A246AB46F0BDC046280F000049050000BB
:100430009D060000D50E0000BF060000B5060000B6
:10044000D106000010B54388DB0503D4436B002BB5
:1004500000D0984710BD10B54388DB0503D4836BEB
:10046000002B00D0984710BD10B54388DB0503D49E
:10047000036B002B00D0984710BD000010B584B06E
:10048000140001AB2838828F1A800294054A5A80E2
:1004900003911900044B9847002800D1200004B0B4
:1004A00010BDC0460080FFFFE108000010B584B019
:1004B000140001AB2838828F1A800294054A5A80B2
:1004C00003911900044B9847002800D1200004B084
:1004D00010BDC0460180FFFFE108000070B50400B8
:1004E0000D00431E9841C0B289220E490E4B984719
:1004F000290020000D4B9847051E01D0280070BD33
:100500000B4BE3620B4BA3620B4A012120000B4E05
:10051000B0470B4A02212000B0470A4A00212000C0
:10052000B047EBE7440F0000490500005D080000FC
:10053000AD0400007D040000450400001D0A000019
:100540005704000069040000002800D100BE704775
:100550000020704770B504000D00394BC0184242AE
:100560004241D0B294223749374B9847374B1A68EB
:100570005201E023DB001A40354B596849011B68E2
:10058000DB0E0B43FF210B401A43637EDB09FCD1DA
:1005900023789B0704D500232370637EDB09FCD1FD
:1005A00001232370637EDB09FCD12285EA00521B04
:1005B0009200284B9B189A786270DA78A2701A79A8
:1005C000E2701A7C2275DA8AA2841A8BE284997E00
:1005D0002A22A154DB88A380637EDB09FCD1EB00D7
:1005E0005B1B9B001B4AD318DB682361637EDB091E
:1005F000FCD1EB005B1B9B00164AD3181B7A2372BD
:10060000637EDB09FCD1EB005B1B9B00114AD31816
:100610005B8AA383637EDB09FCD1EB005B1B9B0041
:100620000C4AD3189B8A2384637EDB09FCD1EB0040
:100630005D1BAD00074B5D196B782370002070BD0A
:1006400000E0FFBD800F000049050000246080002D
:1006500020608000640F000070B505000C00431E90
:100660009841C0B2C5220649064B98472C6020002D
:10067000054B984701002000044B984770BDC046C9
:10068000800F0000490500005105000055050000DD
:100690000268137802210B43137070470268537E7F
:1006A000DB09FCD190888006800F0338431E9841F7
:1006B000013070470368187E0123184070470268B4
:1006C000137B02210B431373537EDB09FCD170476C
:1006D0000268537EDB09FCD1508B80B2704700006A
:1006E00010B5064B5A685A60054B9847054B98471A
:1006F000054B98473F20054B984710BD00400041EF
:10070000310700006D0C0000B50C0000110700005F
:10071000C3070AD5054B802252009A6083225202F9
:100720005A601A005378DB09FCD17047000C004076
:10073000064B1A7AD2B21A725A7AD2B25A729A7A8C
:10074000D2B29A72DA7AD2B2DA72704700040040FA
:1007500010B5074B9C466044800AC0B2002806D002
:10076000044A05490020054B98470120404210BD2E
:1007700000F8FFBD9E030000B00F00004905000017
:1007800070B505000C000800314B9847C0B2E36912
:10079000DB0721D443001B18DB002E4AD31859680D
:1007A0001C2319400322E3691A42FCD123689B07EA
:1007B0000BD523680222934323600132E3691A4276
:1007C000FCD10222E3691A42FCD101230B432360CE
:1007D0000322E3691A42FCD10122E3691A42FCD1E7
:1007E00043001B18DB001B4AD31859682160032201
:1007F000E3691A42FCD143001B18DB00154AD318E9
:100800009B6863600422E3691A42FCD143001B1811
:10081000DB00104AD318DB68E3608901890FA981E6
:10082000636A0D4E1E4001238B429B415B429B033A
:10083000334363620422E3691A42FCD1430018186F
:10084000C000044B1818438AEB81002070BDC046DD
:1008500051070000980F0000FFBFFFFF70B50500B3
:100860000C00431E9841C0B2154A1649164B9847D2
:100870002C6121002800154B9847002800D070BD3E
:10088000134B9C4217D0134B9C466444A40A093472
:10089000E3B22206F3D41F221A40012393400E4AEA
:1008A00080215350BFF34F8FBFF36F8F0131FF3162
:1008B00053501360E3E7094B1D600923EBE7C04683
:1008C00084040000B00F000049050000810700000B
:1008D0000008004200F8FFBD00E100E01C0000201D
:1008E000F0B583B005000C000600731E9E41F3B204
:1008F0000193434F434A39001800434EB0472869DB
:10090000431E9841C0B29B22D2003900B04720005C
:10091000431E9841C0B23D4A3900B0476068002884
:1009200045D06B88DB0500D566E0628880235B00DC
:100930001A4362802A0043CC43C22A6951680B43A0
:1009400053600421D3691942FCD12C692768304ACD
:100950002B4901982C4B98476B68012B29D0636871
:100960002C4A134063600422E3691A42FCD12B88AD
:100970005A052AD56A88D20704D56A888021C90019
:100980000A436A805B00244919400422E3691A4241
:10099000FCD1636A8022D2011A4080231B021343D8
:1009A000194361620422E3691A42FCD1002003B0BA
:1009B000F0BD3B01D3D562688023DB021343636043
:1009C0000422E3691A42FCD1D1E76A885B00FF2167
:1009D0000B40FE39114019430422E3691A42FCD14D
:1009E000636A8022D20113400B4363620422E369ED
:1009F0001A42FCD10020DAE704204042D7E7C04683
:100A0000B00F0000D704000049050000D904000021
:100A1000AF040000FFFFFBFFFE070000012907D025
:100A2000002903D0022905D0002070474261FBE76E
:100A30008261F9E7C261F7E7F8B5864B1D682C695A
:100A4000277EFFB22800431E9841C0B28222D20006
:100A50008149824EB0472869431E9841C0B2804AFE
:100A60007D49B0477BB2002B00DAE5E02168042223
:100A7000E3691A42FCD1638B9BB2FA0700D484E08D
:100A80009A071CD5012222766A88802149010A43EF
:100A90006A806A8873490A406A800331FF310B40DB
:100AA0005942594105396B886E4A13406B806B6916
:100AB000002B03D02800984780232376F8BD5B07DE
:100AC00021D46B885B053BD52B88DB0906211940B7
:100AD0000422E3691A42FCD1636A8022D2011340E6
:100AE000F12213430B436362ED3AE3691A42FCD1EE
:100AF0006B885D4A13406B80AB69002B00D187E0A7
:100B000028009847DAE76B68002B04DD6B888022A9
:100B1000520113436B806B881BB2002B06DB6B8882
:100B2000504A13406B8002214942BCE76268C023EF
:100B30009B02134363600422E3691A42FCD1EEE78F
:100B40006B68002B12D16B881BB2002B04DB6B8807
:100B5000444A13406B80CFE76268C0239B02134373
:100B600063600422E3691A42FCD1F0E7AB681A78AB
:100B70002823E2540422E3691A42FCD1AB68013312
:100B8000AB606B68013B6B60B6E7BA0700D495E7D2
:100B90006A68002A37D05B0735D40901C90F013ACA
:100BA0006A60002A37D1002939D06B881BB2002B2C
:100BB00016DB6B882B4A13406B80A9684B1CAB601B
:100BC0000422E3691A42FCD12823E35C0B70022360
:100BD0002376EB69002B00D170E7280098476DE77A
:100BE0006368204A134063600632FF32E3691A42A9
:100BF000FCD16268C0239B02134363600422E36953
:100C00001A42FCD1D5E702232376022149424AE762
:100C1000BB07DED452E7012ACFD10029CDD06268CC
:100C20008023DB02134363600422E3691A42FCD190
:100C30006B68002BB9D0C0E76B880A4A13406B8001
:100C40006B69002B00D139E70521494228009847FC
:100C500032E7C0461C000020B00F0000490500002C
:100C600011040000FFFEFFFFFFFBFFFF0E4B1A6A9F
:100C7000196A0E480240890F89070D4801430A434B
:100C80001A629A6902210A439A611A7F1D310A4049
:100C90001A7719000822CB681A42FCD0024A136A5C
:100CA00080210B4313627047000800400000FF0FD3
:100CB00002030000024A936902218B43936170474B
:100CC0000008004030B583B00B4B984700210B481B
:100CD0000B4B9847094D0B4C022301AA0021280019
:100CE000A047022301AA00212800A047022301AA4D
:100CF00000212800A047EFE7ED00000020000020C1
:100D0000590300008503000003460B437FD40022F3
:100D100043088B4274D303098B425FD3030A8B428F
:100D200044D3030B8B4228D3030C8B420DD3FF22F9
:100D3000090212BA030C8B4202D31212090265D0C7
:100D4000030B8B4219D300E0090AC30B8B4201D37A
:100D5000CB03C01A5241830B8B4201D38B03C01AC1
:100D60005241430B8B4201D34B03C01A5241030B38
:100D70008B4201D30B03C01A5241C30A8B4201D3E9
:100D8000CB02C01A5241830A8B4201D38B02C01A94
:100D90005241430A8B4201D34B02C01A5241030A0B
:100DA0008B4201D30B02C01A5241CDD2C3098B42F0
:100DB00001D3CB01C01A524183098B4201D38B016D
:100DC000C01A524143098B4201D34B01C01A524110
:100DD00003098B4201D30B01C01A5241C3088B4255
:100DE00001D3CB00C01A524183088B4201D38B0040
:100DF000C01A524143088B4201D34B00C01A5241E2
:100E0000411A00D201465241104670475DE0CA0FB8
:100E100000D04942031000D34042534000229C4678
:100E200003098B422DD3030A8B4212D3FC22890182
:100E300012BA030A8B420CD3890192118B4208D358
:100E4000890192118B4204D389013AD0921100E0BA
:100E50008909C3098B4201D3CB01C01A52418309CE
:100E60008B4201D38B01C01A524143098B4201D3FB
:100E70004B01C01A524103098B4201D30B01C01A26
:100E80005241C3088B4201D3CB00C01A52418308A0
:100E90008B4201D38B00C01A5241D9D243088B42F6
:100EA00001D34B00C01A5241411A00D20146634699
:100EB00052415B10104601D34042002B00D54942FD
:100EC000704763465B1000D3404201B5002000F03C
:100ED00005F802BD0029F8D016E770477047C046F4
:100EE00070B500260C4D0D4C641BA410A64209D110
:100EF000002600F06BF80A4D0A4C641BA410A642B1
:100F000005D170BDB300EB5898470136EEE7B3004A
:100F1000EB5898470136F2E7D80F0000D80F0000D1
:100F2000D80F0000DC0F00002E2E2F68616C2F738D
:100F300072632F68616C5F6164635F73796E632EA7
:100F4000630000002E2E2F68616C2F7372632F6870
:100F5000616C5F6932635F6D5F6173796E632E638D
:100F6000000000000002000000000000000000007F
:100F7000020200000000000000000000000000006D
:100F80002E2E2F68706C2F6164632F68706C5F6108
:100F900064632E63000000000000000014002000C5
:100FA00000010000FF0000000000D70040420F00D9
:100FB0002E2E2F68706C2F736572636F6D2F6870A3
:100FC0006C5F736572636F6D2E630000F8B5C04689
:100FD000F8BC08BC9E467047B5000000F8B5C04696
:0C0FE000F8BC08BC9E4670478D00000065
:00000001FF
