S00E000048474B6E6F622E73726563FD
S113000070080020F1000000ED000000ED00000089
S113001000000000000000000000000000000000DC
S1130020000000000000000000000000ED000000DF
S11300300000000000000000ED000000ED000000E2
S1130040ED000000ED000000ED000000ED000000F8
S1130050ED000000ED000000ED000000ED000000E8
S1130060ED000000ED000000ED00000000000000C5
S1130070ED000000ED000000ED000000ED000000C8
S1130080ED000000ED000000ED00000010B5064C8E
S11300902378002B07D1054B002B02D0044800E045
S11300A000BF0123237010BD2C04002000000000B9
S11300B05C060000084B10B5002B03D00749084824
S11300C000E000BF07480368002B00D110BD064BB9
S11300D0002BFBD09847F9E7000000003004002013
S11300E05C0600005C06000000000000FEE7000063
S11300F0F8B52A4A2A4B9A4211D01A00294B9A423F
S11301000DD2294A03339B1A9B0801339B0000221A
S1130110234822498C58845004329A42FAD1234A03
S1130120234B9A420AD2D34321495B1803218B43C0
S113013004339B18002102C29342FCD11D4AFF21C3
S11301401D4B8B439360FD3990235B001B4AD150B8
S11301501B4AD3780325AB4302242343D370D378BB
S11301600C27BB4308263343D370164B987B3022AD
S11301709043202210439873997BB9433143997378
S11301809A7BAA4322439A730F4A536880210B43F4
S113019053600E4B98470E4B9847FEE75C060000F1
S11301A0000000202C040020040000202C04002067
S11301B06C04002000ED00E000000000007000412D
S11301C000500041004800410040004195040000F7
S11301D05504000010B52A4A116A80235B000B43C2
S11301E01362284A284B5A801A005378DB09FCD141
S11301F0264A137802218B431370537EDB09FCD10A
S1130200224A137801210B4313701378DB07FCD4C3
S1130210537EDB09F9D11E4B1A689106490F1D4B19
S11302201C68E40E5201FF2313401C43174A537EFB
S1130230DB09FCD10B022343144A1385537EDB09EB
S1130240FCD1124B02225A7031329A70233A9A80AE
S1130250114919610121D970104B5A6044201A5C6C
S1130260012422431A5432229954084A537EDB094A
S1130270FCD1064A137802210B43137010BDC0460B
S11302800004004013400000000C00400020004225
S113029024608000206080000218000F00440041A8
S11302A0324A136A04210B431362314A314B5A8098
S11302B01A005378DB09FCD12F4A136802218B43BF
S11302C01360D3699B07FCD42B4A136801210B43A9
S11302D01360D369DB07FCD4D3699B07F9D4274B9C
S11302E04E22995C01200143C9B299544F215A5CB2
S11302F00243D2B25A543722995C022001439954E2
S1130300995C1E30014399541B4A136801210B4325
S11303101360D369DB07FCD41368DB07F9D4164BED
S113032014221A60C02292005A601A00D3695B0733
S1130330FCD4114AD368FF218B43FB390B43D360B0
S1130340D3695B07FCD40C4A136802210B43136086
S1130350D3699B07FCD4084A538B30218B4310216B
S11303600B435383D3695B07FCD4704700040040FC
S11303700E400000000C0040000800420044004110
S113038030B5244B5B8B9B069B0F032B36D0214D42
S11303906B6A4400D80AC002204368622800037EC6
S11303A0DB07FCD51B4B5B8B9B069B0F022B27D1DA
S11303B0184B5B8B5B0726D4002A14D00C008918D9
S11303C0144B282522785A55187EC20705D4588B19
S11303D0C207F9D50320404230BD5A8B520715D4C9
S11303E00134A142EED10B4A5168C0239B020B4356
S11303F05360D3695B07FCD40020EDE70020EBE7F2
S113040002204042E8E701204042E5E70420404260
S1130410E2E7C04600080042084A537EDB09FCD1EB
S1130420064A137B02210B431373137EDB07FCD5AF
S1130430024B01221A76588B80B27047002000428A
S113044010B5024B9847024B984710BDD5010000E8
S1130450A102000070B582B00B4B98470B4D6B4660
S11304609C1D0B4EA8472080A847228803041B0C20
S1130470D31ADA179B1853401BB2052BF2DD022264
S113048021003020B047EDE74104000019040000CA
S11304908103000070B50D4E0D4D0024AD1BAD1051
S11304A005D0A300F35801349847A542F9D100F0D0
S11304B0C3F8084E084D0024AD1BAD1005D0A300B1
S11304C0F35801349847A542F9D170BD44060000A1
S11304D044060000440600004C060000034B10B51F
S11304E0002B02D0024800F005F810BD0000000007
S11304F00505000010B5010000230022002000F0D3
S11305001FF810BD70B5094B094CE41AA41009D0AA
S1130510084AA518AD00ED182B68013C9847043D26
S1130520002CF9D100F092F870BDC04658060000C6
S11305305C060000FFFFFF3F7047C0467047C0469F
S1130540F0B54E464546DE465746E0B5364D83B0D7
S11305500600286898460F009146FFF7EDFF334BDD
S11305601C68A4235B00E058002852D043681F2B6A
S113057013DC5A1C0192002E28D1019A02339B00ED
S113058042601F502868FFF7D9FF002003B03CBC2D
S113059090469946A246AB46F0BD254B002B3DD074
S11305A0C820400000E000BF002837D0A422002368
S11305B05200A15843600160A0504032835004327D
S11305C08350013301930023002ED6D09A00924623
S11305D082444A46882154466250C42252009146BD
S11305E081444A468739994012688B460A439446A7
S11305F04A4661461160842241465200A150022EAF
S1130600BBD102005C468D32FF3211680C4314608A
S1130610B3E720004D30FF30E050A7E72868FFF72C
S11306208DFF01204042B1E7280400203406000079
S11306300000000000000020F8B5C046F8BC08BC6B
S11306409E467047DD040000B5000000F8B5C046C2
S10F0650F8BC08BC9E4670478D000000FA
S113065C00000000EC02002054030020BC03002026
S113066C000000000000000000000000000000007A
S113067C000000000000000000000000000000006A
S113068C000000000000000000000000000000005A
S113069C000000000000000000000000000000004A
S11306AC000000000000000000000000000000003A
S11306BC000000000000000000000000000000002A
S11306CC000000000000000000000000000000001A
S11306DC000000000000000000000000000000000A
S11306EC00000000000000000000000000000000FA
S11306FC00000000000000000100000000000000E9
S113070C0E33CDAB34126DE6ECDE05000B000000AD
S113071C00000000000000000000000000000000C9
S113072C00000000000000000000000000000000B9
S113073C00000000000000000000000000000000A9
S113074C0000000000000000000000000000000099
S10F0A7C000000000000000048040020FE
S9030000FC
